{
  "abi": [
    {
      "type": "constructor",
      "inputs": [
        {
          "name": "_echoTokenAddress",
          "type": "address",
          "internalType": "address"
        },
        {
          "name": "_stakeAmount",
          "type": "uint256",
          "internalType": "uint256"
        }
      ],
      "stateMutability": "nonpayable"
    },
    {
      "type": "function",
      "name": "contributionScores",
      "inputs": [
        {
          "name": "",
          "type": "address",
          "internalType": "address"
        }
      ],
      "outputs": [
        {
          "name": "",
          "type": "uint256",
          "internalType": "uint256"
        }
      ],
      "stateMutability": "view"
    },
    {
      "type": "function",
      "name": "deviceIdToOwner",
      "inputs": [
        {
          "name": "",
          "type": "string",
          "internalType": "string"
        }
      ],
      "outputs": [
        {
          "name": "",
          "type": "address",
          "internalType": "address"
        }
      ],
      "stateMutability": "view"
    },
    {
      "type": "function",
      "name": "deviceReadings",
      "inputs": [
        {
          "name": "",
          "type": "string",
          "internalType": "string"
        },
        {
          "name": "",
          "type": "uint256",
          "internalType": "uint256"
        }
      ],
      "outputs": [
        {
          "name": "ipfsCID",
          "type": "string",
          "internalType": "string"
        },
        {
          "name": "timestamp",
          "type": "uint256",
          "internalType": "uint256"
        }
      ],
      "stateMutability": "view"
    },
    {
      "type": "function",
      "name": "echoToken",
      "inputs": [],
      "outputs": [
        {
          "name": "",
          "type": "address",
          "internalType": "contract IEchoToken"
        }
      ],
      "stateMutability": "view"
    },
    {
      "type": "function",
      "name": "owner",
      "inputs": [],
      "outputs": [
        {
          "name": "",
          "type": "address",
          "internalType": "address"
        }
      ],
      "stateMutability": "view"
    },
    {
      "type": "function",
      "name": "registerSensor",
      "inputs": [
        {
          "name": "_deviceId",
          "type": "string",
          "internalType": "string"
        }
      ],
      "outputs": [],
      "stateMutability": "nonpayable"
    },
    {
      "type": "function",
      "name": "sensors",
      "inputs": [
        {
          "name": "",
          "type": "address",
          "internalType": "address"
        }
      ],
      "outputs": [
        {
          "name": "deviceOwner",
          "type": "address",
          "internalType": "address"
        },
        {
          "name": "isVerified",
          "type": "bool",
          "internalType": "bool"
        },
        {
          "name": "deviceId",
          "type": "string",
          "internalType": "string"
        }
      ],
      "stateMutability": "view"
    },
    {
      "type": "function",
      "name": "slashStake",
      "inputs": [
        {
          "name": "_deviceId",
          "type": "string",
          "internalType": "string"
        }
      ],
      "outputs": [],
      "stateMutability": "nonpayable"
    },
    {
      "type": "function",
      "name": "stakeAmount",
      "inputs": [],
      "outputs": [
        {
          "name": "",
          "type": "uint256",
          "internalType": "uint256"
        }
      ],
      "stateMutability": "view"
    },
    {
      "type": "function",
      "name": "stakes",
      "inputs": [
        {
          "name": "",
          "type": "address",
          "internalType": "address"
        }
      ],
      "outputs": [
        {
          "name": "",
          "type": "uint256",
          "internalType": "uint256"
        }
      ],
      "stateMutability": "view"
    },
    {
      "type": "function",
      "name": "submitReading",
      "inputs": [
        {
          "name": "_deviceId",
          "type": "string",
          "internalType": "string"
        },
        {
          "name": "ipfsCID",
          "type": "string",
          "internalType": "string"
        }
      ],
      "outputs": [],
      "stateMutability": "nonpayable"
    },
    {
      "type": "function",
      "name": "unstakeAndDeregister",
      "inputs": [],
      "outputs": [],
      "stateMutability": "nonpayable"
    },
    {
      "type": "event",
      "name": "ReadingSubmitted",
      "inputs": [
        {
          "name": "owner",
          "type": "address",
          "indexed": true,
          "internalType": "address"
        },
        {
          "name": "ipfsCID",
          "type": "string",
          "indexed": false,
          "internalType": "string"
        },
        {
          "name": "rewardAmount",
          "type": "uint256",
          "indexed": false,
          "internalType": "uint256"
        }
      ],
      "anonymous": false
    },
    {
      "type": "event",
      "name": "RewardMinted",
      "inputs": [
        {
          "name": "to",
          "type": "address",
          "indexed": true,
          "internalType": "address"
        },
        {
          "name": "amount",
          "type": "uint256",
          "indexed": false,
          "internalType": "uint256"
        }
      ],
      "anonymous": false
    },
    {
      "type": "event",
      "name": "SensorDeregistered",
      "inputs": [
        {
          "name": "owner",
          "type": "address",
          "indexed": true,
          "internalType": "address"
        }
      ],
      "anonymous": false
    },
    {
      "type": "event",
      "name": "SensorRegistered",
      "inputs": [
        {
          "name": "owner",
          "type": "address",
          "indexed": true,
          "internalType": "address"
        },
        {
          "name": "deviceId",
          "type": "string",
          "indexed": false,
          "internalType": "string"
        },
        {
          "name": "stakeAmount",
          "type": "uint256",
          "indexed": false,
          "internalType": "uint256"
        }
      ],
      "anonymous": false
    },
    {
      "type": "event",
      "name": "StakeSlashed",
      "inputs": [
        {
          "name": "sensorAddress",
          "type": "address",
          "indexed": true,
          "internalType": "address"
        },
        {
          "name": "userStake",
          "type": "uint256",
          "indexed": false,
          "internalType": "uint256"
        }
      ],
      "anonymous": false
    },
    {
      "type": "error",
      "name": "AlreadyRegistered",
      "inputs": []
    },
    {
      "type": "error",
      "name": "DeviceIdAlreadyUsed",
      "inputs": []
    },
    {
      "type": "error",
      "name": "DeviceIdNotFound",
      "inputs": []
    },
    {
      "type": "error",
      "name": "IncorrectStakeAmount",
      "inputs": []
    },
    {
      "type": "error",
      "name": "NotRegistered",
      "inputs": []
    },
    {
      "type": "error",
      "name": "OnlyOwner",
      "inputs": []
    },
    {
      "type": "error",
      "name": "ReentrancyGuardReentrantCall",
      "inputs": []
    },
    {
      "type": "error",
      "name": "TransferFailed",
      "inputs": []
    }
  ],
  "bytecode": {
    "object": "0x60c060405234801561000f575f5ffd5b5060405161227b38038061227b8339818101604052810190610031919061015f565b60015f819055508173ffffffffffffffffffffffffffffffffffffffff1660808173ffffffffffffffffffffffffffffffffffffffff1681525050670de0b6b3a76400008161008091906101ca565b60a081815250503360015f6101000a81548173ffffffffffffffffffffffffffffffffffffffff021916908373ffffffffffffffffffffffffffffffffffffffff160217905550505061020b565b5f5ffd5b5f73ffffffffffffffffffffffffffffffffffffffff82169050919050565b5f6100fb826100d2565b9050919050565b61010b816100f1565b8114610115575f5ffd5b50565b5f8151905061012681610102565b92915050565b5f819050919050565b61013e8161012c565b8114610148575f5ffd5b50565b5f8151905061015981610135565b92915050565b5f5f60408385031215610175576101746100ce565b5b5f61018285828601610118565b92505060206101938582860161014b565b9150509250929050565b7f4e487b71000000000000000000000000000000000000000000000000000000005f52601160045260245ffd5b5f6101d48261012c565b91506101df8361012c565b92508282026101ed8161012c565b915082820484148315176102045761020361019d565b5b5092915050565b60805160a05161201e61025d5f395f8181610d29015281816110890152818161112a01526113e201525f818161057601528181610b8f01528181610f36015281816110ec0152611474015261201e5ff3fe608060405234801561000f575f5ffd5b50600436106100b2575f3560e01c80636c55b0a71161006f5780636c55b0a7146101765780638da5cb5b146101a6578063afcab47a146101c4578063c3e8fb97146101f5578063e5babf9814610227578063ec6caca914610245576100b2565b806304ac469f146100b657806316934fc4146100c05780633ff8756c146100f05780634b55df7b1461010c5780635384d4591461012857806360c7dc4714610158575b5f5ffd5b6100be610261565b005b6100da60048036038101906100d5919061160f565b610698565b6040516100e79190611652565b60405180910390f35b61010a600480360381019061010591906116cc565b6106ad565b005b6101266004803603810190610121919061174a565b6108d5565b005b610142600480360381019061013d91906118cd565b610cdf565b60405161014f9190611923565b60405180910390f35b610160610d27565b60405161016d9190611652565b60405180910390f35b610190600480360381019061018b919061160f565b610d4b565b60405161019d9190611652565b60405180910390f35b6101ae610d60565b6040516101bb9190611923565b60405180910390f35b6101de60048036038101906101d99190611966565b610d85565b6040516101ec929190611a20565b60405180910390f35b61020f600480360381019061020a919061160f565b610e5d565b60405161021e93929190611a68565b60405180910390f35b61022f610f34565b60405161023c9190611aff565b60405180910390f35b61025f600480360381019061025a919061174a565b610f58565b005b610269611425565b5f73ffffffffffffffffffffffffffffffffffffffff1660025f3373ffffffffffffffffffffffffffffffffffffffff1673ffffffffffffffffffffffffffffffffffffffff1681526020019081526020015f205f015f9054906101000a900473ffffffffffffffffffffffffffffffffffffffff1673ffffffffffffffffffffffffffffffffffffffff160361032c576040517faba4733900000000000000000000000000000000000000000000000000000000815260040160405180910390fd5b5f60035f3373ffffffffffffffffffffffffffffffffffffffff1673ffffffffffffffffffffffffffffffffffffffff1681526020019081526020015f205490505f60025f3373ffffffffffffffffffffffffffffffffffffffff1673ffffffffffffffffffffffffffffffffffffffff1681526020019081526020015f2060010180546103b990611b45565b80601f01602080910402602001604051908101604052809291908181526020018280546103e590611b45565b80156104305780601f1061040757610100808354040283529160200191610430565b820191905f5260205f20905b81548152906001019060200180831161041357829003601f168201915b5050505050905060025f3373ffffffffffffffffffffffffffffffffffffffff1673ffffffffffffffffffffffffffffffffffffffff1681526020019081526020015f205f5f82015f6101000a81549073ffffffffffffffffffffffffffffffffffffffff02191690555f820160146101000a81549060ff0219169055600182015f6104bc919061154c565b505060035f3373ffffffffffffffffffffffffffffffffffffffff1673ffffffffffffffffffffffffffffffffffffffff1681526020019081526020015f205f905560058160405161050e9190611baf565b90815260200160405180910390205f6101000a81549073ffffffffffffffffffffffffffffffffffffffff02191690555f60048260405161054f9190611baf565b90815260200160405180910390205f6101000a81548160ff0219169083151502179055505f7f000000000000000000000000000000000000000000000000000000000000000073ffffffffffffffffffffffffffffffffffffffff1663a9059cbb33856040518363ffffffff1660e01b81526004016105cf929190611bc5565b6020604051808303815f875af11580156105eb573d5f5f3e3d5ffd5b505050506040513d601f19601f8201168201806040525081019061060f9190611c16565b905080610648576040517f90b8ec1800000000000000000000000000000000000000000000000000000000815260040160405180910390fd5b3373ffffffffffffffffffffffffffffffffffffffff167f2e56c8e19757ffecb0e7cf8302cd15003fc9d87de38fef02d1c094c3c52d0c5b60405160405180910390a2505050610696611469565b565b6003602052805f5260405f205f915090505481565b5f600585856040516106c0929190611c65565b90815260200160405180910390205f9054906101000a900473ffffffffffffffffffffffffffffffffffffffff1690505f73ffffffffffffffffffffffffffffffffffffffff168173ffffffffffffffffffffffffffffffffffffffff1603610755576040517fc01a7ce800000000000000000000000000000000000000000000000000000000815260040160405180910390fd5b5f67016345785d8a0000905060068686604051610773929190611c65565b9081526020016040518091039020604051806040016040528086868080601f0160208091040260200160405190810160405280939291908181526020018383808284375f81840152601f19601f82011690508083019250505050505050815260200142815250908060018154018082558091505060019003905f5260205f2090600202015f909190919091505f820151815f0190816108129190611e14565b5060208201518160010155505060075f8373ffffffffffffffffffffffffffffffffffffffff1673ffffffffffffffffffffffffffffffffffffffff1681526020019081526020015f205f81548092919061086c90611f10565b919050555061087b8282611472565b8173ffffffffffffffffffffffffffffffffffffffff167fa46d76ebd0ae0e001228af30120ca8c191469c43a8520b96dad5fc6bdfc5b0708585846040516108c593929190611f83565b60405180910390a2505050505050565b6108dd611425565b60015f9054906101000a900473ffffffffffffffffffffffffffffffffffffffff1673ffffffffffffffffffffffffffffffffffffffff163373ffffffffffffffffffffffffffffffffffffffff1614610963576040517f5fc483c500000000000000000000000000000000000000000000000000000000815260040160405180910390fd5b5f60058383604051610976929190611c65565b90815260200160405180910390205f9054906101000a900473ffffffffffffffffffffffffffffffffffffffff1690505f73ffffffffffffffffffffffffffffffffffffffff168173ffffffffffffffffffffffffffffffffffffffff1603610a0b576040517fc01a7ce800000000000000000000000000000000000000000000000000000000815260040160405180910390fd5b5f60035f8373ffffffffffffffffffffffffffffffffffffffff1673ffffffffffffffffffffffffffffffffffffffff1681526020019081526020015f2054905060025f8373ffffffffffffffffffffffffffffffffffffffff1673ffffffffffffffffffffffffffffffffffffffff1681526020019081526020015f205f5f82015f6101000a81549073ffffffffffffffffffffffffffffffffffffffff02191690555f820160146101000a81549060ff0219169055600182015f610ad1919061154c565b505060035f8373ffffffffffffffffffffffffffffffffffffffff1673ffffffffffffffffffffffffffffffffffffffff1681526020019081526020015f205f905560058484604051610b25929190611c65565b90815260200160405180910390205f6101000a81549073ffffffffffffffffffffffffffffffffffffffff02191690555f60048585604051610b68929190611c65565b90815260200160405180910390205f6101000a81548160ff0219169083151502179055505f7f000000000000000000000000000000000000000000000000000000000000000073ffffffffffffffffffffffffffffffffffffffff1663a9059cbb60015f9054906101000a900473ffffffffffffffffffffffffffffffffffffffff16846040518363ffffffff1660e01b8152600401610c09929190611bc5565b6020604051808303815f875af1158015610c25573d5f5f3e3d5ffd5b505050506040513d601f19601f82011682018060405250810190610c499190611c16565b905080610c82576040517f90b8ec1800000000000000000000000000000000000000000000000000000000815260040160405180910390fd5b8273ffffffffffffffffffffffffffffffffffffffff167f83f5ea8bea7627d95274e94dd7e9e3d7e82cb55feab513ed49e325232dcc61e083604051610cc89190611652565b60405180910390a2505050610cdb611469565b5050565b6005818051602081018201805184825260208301602085012081835280955050505050505f915054906101000a900473ffffffffffffffffffffffffffffffffffffffff1681565b7f000000000000000000000000000000000000000000000000000000000000000081565b6007602052805f5260405f205f915090505481565b60015f9054906101000a900473ffffffffffffffffffffffffffffffffffffffff1681565b6006828051602081018201805184825260208301602085012081835280955050505050508181548110610db6575f80fd5b905f5260205f2090600202015f9150915050805f018054610dd690611b45565b80601f0160208091040260200160405190810160405280929190818152602001828054610e0290611b45565b8015610e4d5780601f10610e2457610100808354040283529160200191610e4d565b820191905f5260205f20905b815481529060010190602001808311610e3057829003601f168201915b5050505050908060010154905082565b6002602052805f5260405f205f91509050805f015f9054906101000a900473ffffffffffffffffffffffffffffffffffffffff1690805f0160149054906101000a900460ff1690806001018054610eb390611b45565b80601f0160208091040260200160405190810160405280929190818152602001828054610edf90611b45565b8015610f2a5780601f10610f0157610100808354040283529160200191610f2a565b820191905f5260205f20905b815481529060010190602001808311610f0d57829003601f168201915b5050505050905083565b7f000000000000000000000000000000000000000000000000000000000000000081565b610f60611425565b5f73ffffffffffffffffffffffffffffffffffffffff1660025f3373ffffffffffffffffffffffffffffffffffffffff1673ffffffffffffffffffffffffffffffffffffffff1681526020019081526020015f205f015f9054906101000a900473ffffffffffffffffffffffffffffffffffffffff1673ffffffffffffffffffffffffffffffffffffffff1614611023576040517f3a81d6fc00000000000000000000000000000000000000000000000000000000815260040160405180910390fd5b60048282604051611035929190611c65565b90815260200160405180910390205f9054906101000a900460ff1615611087576040517fd87d8c6b00000000000000000000000000000000000000000000000000000000815260040160405180910390fd5b7f000000000000000000000000000000000000000000000000000000000000000060035f3373ffffffffffffffffffffffffffffffffffffffff1673ffffffffffffffffffffffffffffffffffffffff1681526020019081526020015f20819055505f7f000000000000000000000000000000000000000000000000000000000000000073ffffffffffffffffffffffffffffffffffffffff166323b872dd33307f00000000000000000000000000000000000000000000000000000000000000006040518463ffffffff1660e01b815260040161116793929190611fb3565b6020604051808303815f875af1158015611183573d5f5f3e3d5ffd5b505050506040513d601f19601f820116820180604052508101906111a79190611c16565b9050806111e0576040517f90b8ec1800000000000000000000000000000000000000000000000000000000815260040160405180910390fd5b60405180606001604052803373ffffffffffffffffffffffffffffffffffffffff16815260200160011515815260200184848080601f0160208091040260200160405190810160405280939291908181526020018383808284375f81840152601f19601f8201169050808301925050505050505081525060025f3373ffffffffffffffffffffffffffffffffffffffff1673ffffffffffffffffffffffffffffffffffffffff1681526020019081526020015f205f820151815f015f6101000a81548173ffffffffffffffffffffffffffffffffffffffff021916908373ffffffffffffffffffffffffffffffffffffffff1602179055506020820151815f0160146101000a81548160ff021916908315150217905550604082015181600101908161130c9190611e14565b50905050600160048484604051611324929190611c65565b90815260200160405180910390205f6101000a81548160ff021916908315150217905550336005848460405161135b929190611c65565b90815260200160405180910390205f6101000a81548173ffffffffffffffffffffffffffffffffffffffff021916908373ffffffffffffffffffffffffffffffffffffffff1602179055503373ffffffffffffffffffffffffffffffffffffffff167f122c59c7cbab263921ed0304eaef2e089abcdd06084100b9a0b2f607d99edfef84847f000000000000000000000000000000000000000000000000000000000000000060405161141093929190611f83565b60405180910390a250611421611469565b5050565b60025f5403611460576040517f3ee5aeb500000000000000000000000000000000000000000000000000000000815260040160405180910390fd5b60025f81905550565b60015f81905550565b7f000000000000000000000000000000000000000000000000000000000000000073ffffffffffffffffffffffffffffffffffffffff166340c10f1983836040518363ffffffff1660e01b81526004016114cd929190611bc5565b5f604051808303815f87803b1580156114e4575f5ffd5b505af11580156114f6573d5f5f3e3d5ffd5b505050508173ffffffffffffffffffffffffffffffffffffffff167fe8ea3d4dd0a2eaaf3f7532ad391255544f8a4bcf78f850bbff61d5bac9f77552826040516115409190611652565b60405180910390a25050565b50805461155890611b45565b5f825580601f106115695750611586565b601f0160209004905f5260205f20908101906115859190611589565b5b50565b5b808211156115a0575f815f90555060010161158a565b5090565b5f604051905090565b5f5ffd5b5f5ffd5b5f73ffffffffffffffffffffffffffffffffffffffff82169050919050565b5f6115de826115b5565b9050919050565b6115ee816115d4565b81146115f8575f5ffd5b50565b5f81359050611609816115e5565b92915050565b5f60208284031215611624576116236115ad565b5b5f611631848285016115fb565b91505092915050565b5f819050919050565b61164c8161163a565b82525050565b5f6020820190506116655f830184611643565b92915050565b5f5ffd5b5f5ffd5b5f5ffd5b5f5f83601f84011261168c5761168b61166b565b5b8235905067ffffffffffffffff8111156116a9576116a861166f565b5b6020830191508360018202830111156116c5576116c4611673565b5b9250929050565b5f5f5f5f604085870312156116e4576116e36115ad565b5b5f85013567ffffffffffffffff811115611701576117006115b1565b5b61170d87828801611677565b9450945050602085013567ffffffffffffffff8111156117305761172f6115b1565b5b61173c87828801611677565b925092505092959194509250565b5f5f602083850312156117605761175f6115ad565b5b5f83013567ffffffffffffffff81111561177d5761177c6115b1565b5b61178985828601611677565b92509250509250929050565b5f5ffd5b5f601f19601f8301169050919050565b7f4e487b71000000000000000000000000000000000000000000000000000000005f52604160045260245ffd5b6117df82611799565b810181811067ffffffffffffffff821117156117fe576117fd6117a9565b5b80604052505050565b5f6118106115a4565b905061181c82826117d6565b919050565b5f67ffffffffffffffff82111561183b5761183a6117a9565b5b61184482611799565b9050602081019050919050565b828183375f83830152505050565b5f61187161186c84611821565b611807565b90508281526020810184848401111561188d5761188c611795565b5b611898848285611851565b509392505050565b5f82601f8301126118b4576118b361166b565b5b81356118c484826020860161185f565b91505092915050565b5f602082840312156118e2576118e16115ad565b5b5f82013567ffffffffffffffff8111156118ff576118fe6115b1565b5b61190b848285016118a0565b91505092915050565b61191d816115d4565b82525050565b5f6020820190506119365f830184611914565b92915050565b6119458161163a565b811461194f575f5ffd5b50565b5f813590506119608161193c565b92915050565b5f5f6040838503121561197c5761197b6115ad565b5b5f83013567ffffffffffffffff811115611999576119986115b1565b5b6119a5858286016118a0565b92505060206119b685828601611952565b9150509250929050565b5f81519050919050565b5f82825260208201905092915050565b8281835e5f83830152505050565b5f6119f2826119c0565b6119fc81856119ca565b9350611a0c8185602086016119da565b611a1581611799565b840191505092915050565b5f6040820190508181035f830152611a3881856119e8565b9050611a476020830184611643565b9392505050565b5f8115159050919050565b611a6281611a4e565b82525050565b5f606082019050611a7b5f830186611914565b611a886020830185611a59565b8181036040830152611a9a81846119e8565b9050949350505050565b5f819050919050565b5f611ac7611ac2611abd846115b5565b611aa4565b6115b5565b9050919050565b5f611ad882611aad565b9050919050565b5f611ae982611ace565b9050919050565b611af981611adf565b82525050565b5f602082019050611b125f830184611af0565b92915050565b7f4e487b71000000000000000000000000000000000000000000000000000000005f52602260045260245ffd5b5f6002820490506001821680611b5c57607f821691505b602082108103611b6f57611b6e611b18565b5b50919050565b5f81905092915050565b5f611b89826119c0565b611b938185611b75565b9350611ba38185602086016119da565b80840191505092915050565b5f611bba8284611b7f565b915081905092915050565b5f604082019050611bd85f830185611914565b611be56020830184611643565b9392505050565b611bf581611a4e565b8114611bff575f5ffd5b50565b5f81519050611c1081611bec565b92915050565b5f60208284031215611c2b57611c2a6115ad565b5b5f611c3884828501611c02565b91505092915050565b5f611c4c8385611b75565b9350611c59838584611851565b82840190509392505050565b5f611c71828486611c41565b91508190509392505050565b5f819050815f5260205f209050919050565b5f6020601f8301049050919050565b5f82821b905092915050565b5f60088302611cd97fffffffffffffffffffffffffffffffffffffffffffffffffffffffffffffffff82611c9e565b611ce38683611c9e565b95508019841693508086168417925050509392505050565b5f611d15611d10611d0b8461163a565b611aa4565b61163a565b9050919050565b5f819050919050565b611d2e83611cfb565b611d42611d3a82611d1c565b848454611caa565b825550505050565b5f5f905090565b611d59611d4a565b611d64818484611d25565b505050565b5b81811015611d8757611d7c5f82611d51565b600181019050611d6a565b5050565b601f821115611dcc57611d9d81611c7d565b611da684611c8f565b81016020851015611db5578190505b611dc9611dc185611c8f565b830182611d69565b50505b505050565b5f82821c905092915050565b5f611dec5f1984600802611dd1565b1980831691505092915050565b5f611e048383611ddd565b9150826002028217905092915050565b611e1d826119c0565b67ffffffffffffffff811115611e3657611e356117a9565b5b611e408254611b45565b611e4b828285611d8b565b5f60209050601f831160018114611e7c575f8415611e6a578287015190505b611e748582611df9565b865550611edb565b601f198416611e8a86611c7d565b5f5b82811015611eb157848901518255600182019150602085019450602081019050611e8c565b86831015611ece5784890151611eca601f891682611ddd565b8355505b6001600288020188555050505b505050505050565b7f4e487b71000000000000000000000000000000000000000000000000000000005f52601160045260245ffd5b5f611f1a8261163a565b91507fffffffffffffffffffffffffffffffffffffffffffffffffffffffffffffffff8203611f4c57611f4b611ee3565b5b600182019050919050565b5f611f6283856119ca565b9350611f6f838584611851565b611f7883611799565b840190509392505050565b5f6040820190508181035f830152611f9c818587611f57565b9050611fab6020830184611643565b949350505050565b5f606082019050611fc65f830186611914565b611fd36020830185611914565b611fe06040830184611643565b94935050505056fea2646970667358221220e0bbfed3fb15b123aa0edccb604a101e9c0772240748ef7eb1de9d18dc55224064736f6c634300081e0033",
    "linkReferences": {}
  },
  "methodIdentifiers": {
    "contributionScores(address)": "6c55b0a7",
    "deviceIdToOwner(string)": "5384d459",
    "deviceReadings(string,uint256)": "afcab47a",
    "echoToken()": "e5babf98",
    "owner()": "8da5cb5b",
    "registerSensor(string)": "ec6caca9",
    "sensors(address)": "c3e8fb97",
    "slashStake(string)": "4b55df7b",
    "stakeAmount()": "60c7dc47",
    "stakes(address)": "16934fc4",
    "submitReading(string,string)": "3ff8756c",
    "unstakeAndDeregister()": "04ac469f"
  },
  "id": 25
}